{
  "address": "0x9f90fD88Ac3721B68F009E4CaFE0EccafAE937b0",
  "abi": [
    {
      "inputs": [],
      "name": "InvalidInitialization",
      "type": "error"
    },
    {
      "inputs": [],
      "name": "NotInitializing",
      "type": "error"
    },
    {
      "anonymous": false,
      "inputs": [
        {
          "indexed": false,
          "internalType": "uint64",
          "name": "version",
          "type": "uint64"
        }
      ],
      "name": "Initialized",
      "type": "event"
    },
    {
      "inputs": [
        {
          "internalType": "string",
          "name": "name",
          "type": "string"
        },
        {
          "internalType": "string",
          "name": "description",
          "type": "string"
        },
        {
          "internalType": "string",
          "name": "imageURL",
          "type": "string"
        },
        {
          "internalType": "uint256[]",
          "name": "sizes",
          "type": "uint256[]"
        },
        {
          "internalType": "uint256[]",
          "name": "amounts",
          "type": "uint256[]"
        },
        {
          "internalType": "uint256",
          "name": "price",
          "type": "uint256"
        }
      ],
      "name": "createNFTAndListShop",
      "outputs": [],
      "stateMutability": "nonpayable",
      "type": "function"
    },
    {
      "inputs": [
        {
          "internalType": "address",
          "name": "_nftAddress",
          "type": "address"
        },
        {
          "internalType": "address",
          "name": "_usdtAddress",
          "type": "address"
        },
        {
          "internalType": "address",
          "name": "_nftShop",
          "type": "address"
        }
      ],
      "name": "initialize",
      "outputs": [],
      "stateMutability": "nonpayable",
      "type": "function"
    },
    {
      "inputs": [],
      "name": "nftAddress",
      "outputs": [
        {
          "internalType": "address",
          "name": "",
          "type": "address"
        }
      ],
      "stateMutability": "view",
      "type": "function"
    },
    {
      "inputs": [],
      "name": "nftShop",
      "outputs": [
        {
          "internalType": "address",
          "name": "",
          "type": "address"
        }
      ],
      "stateMutability": "view",
      "type": "function"
    },
    {
      "inputs": [],
      "name": "usdtAddress",
      "outputs": [
        {
          "internalType": "address",
          "name": "",
          "type": "address"
        }
      ],
      "stateMutability": "view",
      "type": "function"
    }
  ],
  "transactionHash": "0xf355851f5c56222c3ca56ed8af74837544fda642606addcf53d94f47ccc3050e",
  "args": [],
  "numDeployments": 1,
  "solcInputHash": "e42809e419da6ca7bd421a88489a08ec",
  "bytecode": "0x60806040523461001a576040516110e161002082396110e190f35b600080fdfe610200604052600436101561001357600080fd5b60003560e01c806305ee91d7146100635780635bf8633a1461005e5780639ab4a44514610059578063c0c53b8b146100545763d731680a03610097576102dd565b6102b8565b610257565b610224565b6101a3565b909182601f83011215610097578135916001600160401b03831161009757602001926001830284011161009757565b600080fd5b909182601f83011215610097578135916001600160401b03831161009757602001926020830284011161009757565b805b0361009757565b905035906100e1826100cb565b565b9160c0838303126100975782356001600160401b038111610097578261010a918501610068565b92909360208101356001600160401b038111610097578261012c918301610068565b92909360408301356001600160401b038111610097578261014e918501610068565b92909360608101356001600160401b038111610097578261017091830161009c565b92909360808301356001600160401b03811161009757610195836101a092860161009c565b93909460a0016100d4565b90565b34610097576101c86101b63660046100e3565b999890989791979692969593956106f6565b604051005b0390f35b600091031261009757565b6101a0916008021c5b6001600160a01b031690565b906101a091546101dc565b6101a06000806101f1565b610210906101e5565b9052565b6020810192916100e19190610207565b34610097576102343660046101d1565b6101cd61023f6101fc565b60405191829182610214565b6101a0600060016101f1565b34610097576102673660046101d1565b6101cd61023f61024b565b6100cd816101e5565b905035906100e182610272565b9091606082840312610097576101a06102a1848461027b565b936102af816020860161027b565b9360400161027b565b34610097576101c86102cb366004610288565b91610c91565b6101a0600060026101f1565b34610097576102ed3660046101d1565b6101cd61023f6102d1565b0190565b1561030357565b60405162461bcd60e51b815260206004820152600d60248201526c125b9d985b1a59081a5b9c1d5d609a1b6044820152606490fd5b6101a06101a06101a09290565b634e487b7160e01b600052603260045260246000fd5b919081101561036b576020020190565b610345565b356101a0816100cb565b634e487b7160e01b600052601160045260246000fd5b600019811461039f5760010190565b61037a565b634e487b7160e01b600052604160045260246000fd5b90601f01601f191681019081106001600160401b038211176103db57604052565b6103a4565b906100e16103ed60405190565b92836103ba565b6001600160401b0381116103db57602090601f01601f19160190565b9061042261041d836103f4565b6103e0565b918252565b610431600f610410565b6e73697a653a2025732c206a3a20257360881b602082015290565b6101a0610427565b90826000939282370152565b90916102f89083908093610454565b60005b8381106104825750506000910152565b8181015183820152602001610472565b6102f86104aa926020926104a4815190565b94859290565b9384910161046f565b946101a098966104f26105156105599a96610547986104f26104f861052c986105419a6104f26105419f683d913730b6b2911d1160b91b815260090190565b91610460565b701116113232b9b1b934b83a34b7b7111d1160791b815260110190565b6a11161134b6b0b3b2911d1160a91b8152600b0190565b6811161139b4bd32911d60b91b815260090190565b90610492565b65161134b2111d60d11b815260060190565b607d60f81b815260010190565b6105706010610410565b6f6d657461646174614a736f6e3a20257360801b602082015290565b6101a0610566565b6101a0906101e5565b6101a09054610594565b6101a0906101e5906001600160a01b031682565b6101a0906105a7565b6101a0906105bb565b905051906100e1826100cb565b90602082820312610097576101a0916105cd565b61060f6106186020936102f893610603815190565b80835293849260200190565b9586910161046f565b601f01601f191690565b916101a09261063960408201936000830190610207565b60208184039101526105ee565b6040513d6000823e3d90fd5b61065c600b610410565b6a746f6b656e49643a20257360a81b602082015290565b6101a0610652565b9160206100e192949361069660408201966000830190610207565b0152565b6106a4600b610410565b6a6e667453686f703a20257360a81b602082015290565b6101a061069a565b6106966100e1946106ec6060949897956106e5608086019a6000870190610207565b6020850152565b6040830190610207565b999795989699610160526101a0526101c0526101805260e0526101005260a0526101e0526101405261073e61072b8284905090565b6101e051610738905b9190565b146102fc565b6107486000610338565b926107536000610338565b60c0525b60c05161076384610734565b1015610a32579261078061077b838560c0519161035b565b610370565b6101205261078e6001610338565b6080525b6080516107b16107346101a061077b60a0516101e05160c0519161035b565b11610a1d576107d7906107d261012051608051906107cd61044c565b610cc6565b610390565b92610835610160516101a06101a051916108266101c051896101805160e051610100519161081061080a61012051610d44565b94610d44565b9461081a60405190565b998a9860208a016104b3565b602082018103825203826103ba565b6108468161084161058c565b610de2565b602061085d610858610858600061059d565b6105c4565b9163d0def5219261088d6000610872306105c4565b939561089861088060405190565b9788968795869460e01b90565b845260048401610622565b03925af19081156109d4576000916109ef575b506108bd816108b8610673565b610e31565b6108cd610858610858600061059d565b63095ea7b36108dc600261059d565b8392803b15610097576108f86000809461090361088060405190565b84526004840161067b565b03925af180156109d4576109d9575b5061092d610920600261059d565b6109286106bb565b610e83565b61093d610858610858600261059d565b9063f7adbbc99061094e600061059d565b909261095a600161059d565b61014051823b156100975760009461099286926109879461097a60405190565b998a988997889660e01b90565b8652600486016106c3565b03925af180156109d4576109b6575b506109ad608051610390565b60805292610792565b6109ce9060006109c681836103ba565b8101906101d1565b386109a1565b610646565b6109e99060006109c681836103ba565b38610912565b610a10915060203d8111610a16575b610a0881836103ba565b8101906105da565b386108ab565b503d6109fe565b92610a2a60c05160010190565b60c052610757565b92505050565b6101a09060401c60ff1690565b6101a09054610a38565b6101a0905b6001600160401b031690565b6101a09054610a4f565b610a546101a06101a09290565b906001600160401b03905b9181191691161790565b610a546101a06101a0926001600160401b031690565b90610ab26101a0610ab992610a8c565b8254610a77565b9055565b9068ff00000000000000009060401b610a82565b90610ae16101a0610ab992151590565b8254610abd565b61021090610a6a565b6020810192916100e19190610ae8565b7ff0c57e16840df040f15088dc2f81fe391c3923bec73e23a9662efc9c229c6a0092610b33610b2f85610a45565b1590565b92610b3d85610a60565b80610b58610b4b6000610a6a565b916001600160401b031690565b1480610c43575b90610b6d610b4b6001610a6a565b1480610c20575b90155b9081610c17575b50610c0557610ba492610b9a610b946001610a6a565b87610aa2565b84610bf557610c70565b610bab5750565b610bb790600090610ad1565b6001610bf07fc7f505b2f371ae2175ee4913f4499e1f2633a7b5936321eed1cdaeb6115181d291610be760405190565b91829182610af1565b0390a1565b610c00600187610ad1565b610c70565b60405163f92ee8a960e01b8152600490fd5b15905038610b7e565b50610b77610c2d306105c4565b3b610c3b6107346000610338565b149050610b74565b5084610b5f565b906001600160a01b0390610a82565b90610c696101a0610ab9926105c4565b8254610c4a565b6100e19291610c83610c8a926000610c59565b6001610c59565b6002610c59565b906100e19291610b01565b604090610696610cbe6100e195979694606084019084820360008601526105ee565b966020830152565b6040516100e193610cf09291610826919063ca47c4eb60e01b602082015294859360248501610c9c565b610eb0565b369037565b906100e1610d0783610410565b92602080610d1586936103f4565b9201910390610cf5565b634e487b7160e01b600052601260045260246000fd5b8115610d3f570490565b610d1f565b610d5a610d5082610ebb565b6102f86001610338565b90610d6482610cfa565b9160200182015b610d9f9060001901916f181899199a1a9b1b9c1cb0b131b232b360811b600a82061a8353610d99600a610338565b90610d35565b80610dad6107346000610338565b14610db85790610d6b565b505090565b60408082526101a0939192610dd4918401906105ee565b9160208184039101526105ee565b90610cf06100e192610826610df660405190565b634b5c427760e01b602082015293849260248401610dbd565b92916020610e2c6100e193604087019087820360008901526105ee565b940152565b90610cf06100e192610826610e4560405190565b632d839cb360e21b602082015293849260248401610e0f565b92916020610e7b6100e193604087019087820360008901526105ee565b940190610207565b90610cf06100e192610826610e9760405190565b63319af33360e01b602082015293849260248401610e5e565b6100e19060016110c4565b610ec56000610338565b9080610ee961073472184f03e93ff9f4daa797ed6e38ed64bf6a1f0160401b610338565b1015611055575b80610f0b6107346d04ee2d6d415b85acef8100000000610338565b1015611026575b80610f26610734662386f26fc10000610338565b1015610ffe575b80610f3e6107346305f5e100610338565b1015610fd9575b80610f54610734612710610338565b1015610fb6575b80610f696107346064610338565b1015610f94575b610f7d610734600a610338565b1015610f865790565b6101a0906102f86001610338565b610fa5610fb091610d996064610338565b916102f86002610338565b90610f70565b610fc8610fd391610d99612710610338565b916102f86004610338565b90610f5b565b610fed610ff891610d996305f5e100610338565b916102f86008610338565b90610f45565b61101561102091610d99662386f26fc10000610338565b916102f86010610338565b90610f2d565b61104461104f91610d996d04ee2d6d415b85acef8100000000610338565b916102f86020610338565b90610f12565b61107b61108691610d9972184f03e93ff9f4daa797ed6e38ed64bf6a1f0160401b610338565b916102f86040610338565b90610ef0565b600080916110a26a636f6e736f6c652e6c6f6790565b602082519201905afa50565b634e487b7160e01b600052605160045260246000fd5b6001036110ae576100e19061108c56fea164736f6c6343000818000a",
  "devdoc": {
    "errors": {
      "InvalidInitialization()": [
        {
          "details": "The contract is already initialized."
        }
      ],
      "NotInitializing()": [
        {
          "details": "The contract is not initializing."
        }
      ]
    },
    "events": {
      "Initialized(uint64)": {
        "details": "Triggered when the contract has been initialized or reinitialized."
      }
    },
    "kind": "dev",
    "methods": {},
    "version": 1
  },
  "userdoc": {
    "kind": "user",
    "methods": {},
    "version": 1
  },
  "storageLayout": {
    "storage": [
      {
        "astId": 4358,
        "contract": "contracts/NFTAdmin.sol:NFTAdmin",
        "label": "nftAddress",
        "offset": 0,
        "slot": "0",
        "type": "t_address"
      },
      {
        "astId": 4360,
        "contract": "contracts/NFTAdmin.sol:NFTAdmin",
        "label": "usdtAddress",
        "offset": 0,
        "slot": "1",
        "type": "t_address"
      },
      {
        "astId": 4362,
        "contract": "contracts/NFTAdmin.sol:NFTAdmin",
        "label": "nftShop",
        "offset": 0,
        "slot": "2",
        "type": "t_address"
      }
    ],
    "types": {
      "t_address": {
        "encoding": "inplace",
        "label": "address",
        "numberOfBytes": "20"
      }
    }
  }
}