{
  "address": "0x592Ac598F03E3eC434058be5516799b79e0DA064",
  "abi": [
    {
      "inputs": [],
      "name": "AccessControlBadConfirmation",
      "type": "error"
    },
    {
      "inputs": [
        {
          "internalType": "address",
          "name": "account",
          "type": "address"
        },
        {
          "internalType": "bytes32",
          "name": "neededRole",
          "type": "bytes32"
        }
      ],
      "name": "AccessControlUnauthorizedAccount",
      "type": "error"
    },
    {
      "inputs": [],
      "name": "InvalidInitialization",
      "type": "error"
    },
    {
      "inputs": [],
      "name": "NotInitializing",
      "type": "error"
    },
    {
      "anonymous": false,
      "inputs": [
        {
          "indexed": false,
          "internalType": "uint64",
          "name": "version",
          "type": "uint64"
        }
      ],
      "name": "Initialized",
      "type": "event"
    },
    {
      "anonymous": false,
      "inputs": [
        {
          "indexed": true,
          "internalType": "uint256",
          "name": "listingId",
          "type": "uint256"
        },
        {
          "indexed": true,
          "internalType": "address",
          "name": "nftContract",
          "type": "address"
        },
        {
          "indexed": false,
          "internalType": "uint256",
          "name": "tokenId",
          "type": "uint256"
        },
        {
          "indexed": false,
          "internalType": "address",
          "name": "paymentToken",
          "type": "address"
        },
        {
          "indexed": false,
          "internalType": "uint256",
          "name": "price",
          "type": "uint256"
        }
      ],
      "name": "NFTListed",
      "type": "event"
    },
    {
      "anonymous": false,
      "inputs": [
        {
          "indexed": true,
          "internalType": "uint256",
          "name": "listingId",
          "type": "uint256"
        },
        {
          "indexed": true,
          "internalType": "address",
          "name": "buyer",
          "type": "address"
        },
        {
          "indexed": true,
          "internalType": "address",
          "name": "nftContract",
          "type": "address"
        },
        {
          "indexed": false,
          "internalType": "uint256",
          "name": "tokenId",
          "type": "uint256"
        },
        {
          "indexed": false,
          "internalType": "uint256",
          "name": "price",
          "type": "uint256"
        }
      ],
      "name": "NFTSold",
      "type": "event"
    },
    {
      "anonymous": false,
      "inputs": [
        {
          "indexed": true,
          "internalType": "bytes32",
          "name": "role",
          "type": "bytes32"
        },
        {
          "indexed": true,
          "internalType": "bytes32",
          "name": "previousAdminRole",
          "type": "bytes32"
        },
        {
          "indexed": true,
          "internalType": "bytes32",
          "name": "newAdminRole",
          "type": "bytes32"
        }
      ],
      "name": "RoleAdminChanged",
      "type": "event"
    },
    {
      "anonymous": false,
      "inputs": [
        {
          "indexed": true,
          "internalType": "bytes32",
          "name": "role",
          "type": "bytes32"
        },
        {
          "indexed": true,
          "internalType": "address",
          "name": "account",
          "type": "address"
        },
        {
          "indexed": true,
          "internalType": "address",
          "name": "sender",
          "type": "address"
        }
      ],
      "name": "RoleGranted",
      "type": "event"
    },
    {
      "anonymous": false,
      "inputs": [
        {
          "indexed": true,
          "internalType": "bytes32",
          "name": "role",
          "type": "bytes32"
        },
        {
          "indexed": true,
          "internalType": "address",
          "name": "account",
          "type": "address"
        },
        {
          "indexed": true,
          "internalType": "address",
          "name": "sender",
          "type": "address"
        }
      ],
      "name": "RoleRevoked",
      "type": "event"
    },
    {
      "inputs": [],
      "name": "ADMIN_ROLE",
      "outputs": [
        {
          "internalType": "bytes32",
          "name": "",
          "type": "bytes32"
        }
      ],
      "stateMutability": "view",
      "type": "function"
    },
    {
      "inputs": [],
      "name": "DEFAULT_ADMIN_ROLE",
      "outputs": [
        {
          "internalType": "bytes32",
          "name": "",
          "type": "bytes32"
        }
      ],
      "stateMutability": "view",
      "type": "function"
    },
    {
      "inputs": [
        {
          "internalType": "uint256",
          "name": "listingId",
          "type": "uint256"
        }
      ],
      "name": "buyNFT",
      "outputs": [],
      "stateMutability": "payable",
      "type": "function"
    },
    {
      "inputs": [
        {
          "internalType": "bytes32",
          "name": "role",
          "type": "bytes32"
        }
      ],
      "name": "getRoleAdmin",
      "outputs": [
        {
          "internalType": "bytes32",
          "name": "",
          "type": "bytes32"
        }
      ],
      "stateMutability": "view",
      "type": "function"
    },
    {
      "inputs": [
        {
          "internalType": "bytes32",
          "name": "role",
          "type": "bytes32"
        },
        {
          "internalType": "address",
          "name": "account",
          "type": "address"
        }
      ],
      "name": "grantRole",
      "outputs": [],
      "stateMutability": "nonpayable",
      "type": "function"
    },
    {
      "inputs": [
        {
          "internalType": "bytes32",
          "name": "role",
          "type": "bytes32"
        },
        {
          "internalType": "address",
          "name": "account",
          "type": "address"
        }
      ],
      "name": "hasRole",
      "outputs": [
        {
          "internalType": "bool",
          "name": "",
          "type": "bool"
        }
      ],
      "stateMutability": "view",
      "type": "function"
    },
    {
      "inputs": [],
      "name": "initialize",
      "outputs": [],
      "stateMutability": "nonpayable",
      "type": "function"
    },
    {
      "inputs": [
        {
          "internalType": "address",
          "name": "nftContract",
          "type": "address"
        },
        {
          "internalType": "uint256",
          "name": "tokenId",
          "type": "uint256"
        },
        {
          "internalType": "address",
          "name": "paymentToken",
          "type": "address"
        },
        {
          "internalType": "uint256",
          "name": "price",
          "type": "uint256"
        }
      ],
      "name": "listNFT",
      "outputs": [],
      "stateMutability": "nonpayable",
      "type": "function"
    },
    {
      "inputs": [],
      "name": "listingCounter",
      "outputs": [
        {
          "internalType": "uint256",
          "name": "",
          "type": "uint256"
        }
      ],
      "stateMutability": "view",
      "type": "function"
    },
    {
      "inputs": [
        {
          "internalType": "uint256",
          "name": "",
          "type": "uint256"
        }
      ],
      "name": "listings",
      "outputs": [
        {
          "internalType": "address",
          "name": "nftContract",
          "type": "address"
        },
        {
          "internalType": "uint256",
          "name": "tokenId",
          "type": "uint256"
        },
        {
          "internalType": "address",
          "name": "paymentToken",
          "type": "address"
        },
        {
          "internalType": "uint256",
          "name": "price",
          "type": "uint256"
        },
        {
          "internalType": "bool",
          "name": "active",
          "type": "bool"
        }
      ],
      "stateMutability": "view",
      "type": "function"
    },
    {
      "inputs": [
        {
          "internalType": "bytes32",
          "name": "role",
          "type": "bytes32"
        },
        {
          "internalType": "address",
          "name": "callerConfirmation",
          "type": "address"
        }
      ],
      "name": "renounceRole",
      "outputs": [],
      "stateMutability": "nonpayable",
      "type": "function"
    },
    {
      "inputs": [
        {
          "internalType": "bytes32",
          "name": "role",
          "type": "bytes32"
        },
        {
          "internalType": "address",
          "name": "account",
          "type": "address"
        }
      ],
      "name": "revokeRole",
      "outputs": [],
      "stateMutability": "nonpayable",
      "type": "function"
    },
    {
      "inputs": [
        {
          "internalType": "bytes4",
          "name": "interfaceId",
          "type": "bytes4"
        }
      ],
      "name": "supportsInterface",
      "outputs": [
        {
          "internalType": "bool",
          "name": "",
          "type": "bool"
        }
      ],
      "stateMutability": "view",
      "type": "function"
    }
  ],
  "transactionHash": "0x94f19a88d46e2829623d9511b5a009e1268faad7dce00505625a1cfb0d3818a1",
  "args": [],
  "numDeployments": 2,
  "solcInputHash": "8998da25a8da0f74392fa6df2179b7ae",
  "bytecode": "0x60806040523461001a5760405161112c610020823961112c90f35b600080fdfe6080604052600436101561001257600080fd5b60003560e01c806301ffc9a7146100e2578063248a9ca3146100dd5780632f2ff15d146100d857806336568abe146100d357806351ed8288146100ce5780636c2c9c7d146100c957806375b238fc146100c45780638129fc1c146100bf57806391d14854146100ba578063a217fddf146100b5578063d547741f146100b0578063de74e57b146100ab5763f7adbbc9036100fa5761049a565b61042d565b610330565b610315565b6102da565b6102c2565b610289565b61026e565b61022e565b610215565b6101f7565b610181565b610129565b6001600160e01b031981165b036100fa57565b600080fd5b9050359061010c826100e7565b565b906020828203126100fa57610122916100ff565b90565b9052565b346100fa5761015661014461013f36600461010e565b6104b6565b60405191829182901515815260200190565b0390f35b806100f3565b9050359061010c8261015a565b906020828203126100fa5761012291610160565b346100fa5761015661019c61019736600461016d565b6104ed565b6040519182918290815260200190565b6001600160a01b031690565b6001600160a01b0381166100f3565b9050359061010c826101b8565b91906040838203126100fa57610122906101ee8185610160565b936020016101c7565b346100fa5761021061020a3660046101d4565b90610540565b604051005b346100fa576102106102283660046101d4565b9061054a565b61021061023c36600461016d565b610731565b60009103126100fa57565b610122916008021c81565b90610122915461024c565b61012260006001610257565b346100fa5761027e366004610241565b61015661019c610262565b346100fa57610299366004610241565b6101567fa49807205ce4d355092ef5a8a18f56e8913cf4a201fbe287825b095693c2177561019c565b346100fa576102d2366004610241565b610210610bcd565b346100fa576101566101446102f03660046101d4565b90610bdf565b6101226101226101229290565b61012260006102f6565b610122610303565b346100fa57610325366004610241565b61015661019c61030d565b346100fa576102106103433660046101d4565b90610c30565b90610353906102f6565b600052602052604060002090565b6101229081565b6101229054610361565b610122905b60ff1690565b6101229054610372565b610392906000610349565b80546001600160a01b0316916103aa60018301610368565b916103bf60028201546001600160a01b031690565b9161012260046103d160038501610368565b930161037d565b9095949261010c9461041e6104259261040e60809661040760a088019c60008901906001600160a01b03169052565b6020870152565b6001600160a01b03166040850152565b6060830152565b019015159052565b346100fa5761015661044861044336600461016d565b610387565b9161045595939560405190565b958695866103d8565b6080818303126100fa5761047282826101c7565b926101226104838460208501610160565b9361049181604086016101c7565b93606001610160565b346100fa576102106104ad36600461045e565b92919091610f25565b806104d1637965db0b60e01b5b916001600160e01b03191690565b149081156104dd575090565b6101229150610f31565b90610353565b6001610517610122926104fe600090565b5060006000805160206111008339815191525b016104e7565b01610368565b9061010c9161053361052e826104ed565b610f45565b9061053d91610f50565b50565b9061010c9161051d565b9080610565610558336101ac565b916001600160a01b031690565b036105735761053d91610fe8565b60405163334bd91960e11b8152600490fd5b0390fd5b1561059057565b60405162461bcd60e51b81526020600482015260156024820152744c697374696e67206973206e6f742061637469766560581b6044820152606490fd5b6101ac6101226101229290565b610122906105cd565b610122906101ac906001600160a01b031682565b610122906105e3565b610122906105f7565b634e487b7160e01b600052604160045260246000fd5b90601f01601f1916810190811067ffffffffffffffff82111761064157604052565b610609565b8015156100f3565b9050519061010c82610646565b906020828203126100fa576101229161064e565b6001600160a01b03909116815260608101939261010c9290916040916106a0905b6001600160a01b03166020830152565b0152565b6040513d6000823e3d90fd5b156106b757565b60405162461bcd60e51b8152602060048201526015602482015274125b9cdd59999a58da595b9d08115512081cd95b9d605a1b6044820152606490fd5b9060ff905b9181191691161790565b9061071361012261071a92151590565b82546106f4565b9055565b90815260408101929161010c9160200152565b61073f610122826000610349565b9061075461074f6004840161037d565b610589565b60028201546001600160a01b03166107726105586101ac60006105da565b036108bf576107983461079161078d61012260038701610368565b9190565b10156106b0565b6107b26107ad8084546001600160a01b031690565b610600565b6342842e0e6107c030610600565b33926107ce60018701610368565b92813b156100fa5760006107f79161080282966107ea60405190565b9889978896879560e01b90565b85526004850161066f565b03925af180156108ba5761089c575b50610820600060048401610703565b3361083283546001600160a01b031690565b9161084b600361084460018701610368565b9501610368565b61088161087b61087b7f5fafad85dec201c2e73b6a2bef6351129304a624ea8720ecd04cd7f04d83bc39946102f6565b94610600565b9461089761088e60405190565b9283928361071e565b0390a4565b6108b49060006108ac818361061f565b810190610241565b38610811565b6106a4565b6108d96107ad6107ad60028501546001600160a01b031690565b60206323b872dd9133906107f760006108f130610600565b9561090961090160038b01610368565b6040516107ea565b03925af180156108ba5761091e575b50610798565b61093e9060203d8111610943575b610936818361061f565b81019061065b565b610918565b503d61092c565b6101229060401c610377565b610122905461094a565b610122905b67ffffffffffffffff1690565b6101229054610960565b6109656101226101229290565b9067ffffffffffffffff906106f9565b6109656101226101229267ffffffffffffffff1690565b906109c061012261071a92610999565b8254610989565b9068ff00000000000000009060401b6106f9565b906109eb61012261071a92151590565b82546109c7565b6101259061097c565b60208101929161010c91906109f2565b7ff0c57e16840df040f15088dc2f81fe391c3923bec73e23a9662efc9c229c6a00610a3c610a3882610956565b1590565b610a4582610972565b80610a61610a53600061097c565b9167ffffffffffffffff1690565b1480610b4c575b90610a76610a53600161097c565b1480610b29575b90155b9081610b20575b50610b0e57610a9f610a99600161097c565b836109b0565b80610afe575b610aad610b74565b610ab45750565b610ac0906000906109db565b6001610af97fc7f505b2f371ae2175ee4913f4499e1f2633a7b5936321eed1cdaeb6115181d291610af060405190565b918291826109fb565b0390a1565b610b096001836109db565b610aa5565b60405163f92ee8a960e01b8152600490fd5b15905038610a87565b50610a80610b3630610600565b3b610b4461078d60006102f6565b149050610a7d565b5081610a68565b90600019906106f9565b90610b6d61012261071a926102f6565b8254610b53565b610b7c611056565b610b8e610b87610303565b3390610f50565b50610bb87fa49807205ce4d355092ef5a8a18f56e8913cf4a201fbe287825b095693c21775610b87565b5061010c610bc660006102f6565b6001610b5d565b61010c610a0b565b9061035390610600565b610122916000610c0a610c1093610bf4600090565b5082600080516020611100833981519152610511565b01610bd5565b61037d565b9061010c91610c2661052e826104ed565b9061053d91610fe8565b9061010c91610c15565b61010c93929190610c6a7fa49807205ce4d355092ef5a8a18f56e8913cf4a201fbe287825b095693c21775610f45565b610dcc565b15610c7657565b60405162461bcd60e51b815260206004820152601f60248201527f5072696365206d7573742062652067726561746572207468616e207a65726f006044820152606490fd5b9061010c610cc860405190565b928361061f565b61012260a0610cbb565b906001600160a01b03906106f9565b90610cf861012261071a92610600565b8254610cd9565b61010c9190610d7790608090600490610d2981610d2387516001600160a01b031690565b90610ce8565b610d4160018201610d3b602088015190565b90610b5d565b610d5c60028201610d2360408801516001600160a01b031690565b610d6e60038201610d3b606088015190565b01920151151590565b90610703565b9061010c91610cff565b90815260608101939261010c9290916040916106a090610690565b634e487b7160e01b600052601160045260246000fd5b6000198114610dc75760010190565b610da2565b909192610de681610de061078d60006102f6565b11610c6f565b610df26107ad83610600565b6323b872dd33610e0130610600565b928692813b156100fa5760006107f791610e1f82966107ea60405190565b03925af180156108ba57610f0f575b50610e9f82610e856001610e7c85610e758a610e658b610e5e610e4f610ccf565b6001600160a01b03909a168a52565b6020890152565b6001600160a01b03166040870152565b6060850152565b15156080830152565b610e9a6000610e946001610368565b90610349565b610d7d565b610ea96001610368565b9192939093610ef7610ee4610ede7f18c93addaf4d0e5982a13cb88444441b90223974eaf9d6e898151cb4d96bf153956102f6565b95610600565b95610eee60405190565b93849384610d87565b0390a361010c610bc6610f0a6001610368565b610db8565b610f1f9060006108ac818361061f565b38610e2e565b9061010c939291610c3a565b610f416301ffc9a760e01b6104c3565b1490565b61010c90339061107b565b600080516020611100833981519152610f6c610a388484610bdf565b15610fe057610f9690610f916000610f89816001940186906104e7565b018590610bd5565b610703565b903390610fcd610fc7610fc77f2f8788117e7eff1d82e926ec794901d17c78024a50270940304540a733656f0d9590565b92610600565b92610fd760405190565b600090a4600190565b505050600090565b6000805160206111008339815191526110018383610bdf565b15610fe05761101d90610f916000610f898180940186906104e7565b903390610fcd610fc7610fc77ff6391f5c32d9c69d2a47ea670b442974b53935d1edc7fd64eb21e047a839171b9590565b61010c6110b3565b61010c61104e565b6001600160a01b03909116815260408101929161010c9160200152565b90611089610a388284610bdf565b611091575050565b61058561109d60405190565b63e2517d3f60e01b81529283926004840161105e565b6110be610a386110d6565b6110c457565b604051631afcd79f60e31b8152600490fd5b6101227ff0c57e16840df040f15088dc2f81fe391c3923bec73e23a9662efc9c229c6a0061095656fe02dd7bc7dec4dceedda775e58dd541e08a116c6c53815c0bd028192f7b626800a164736f6c6343000818000a",
  "devdoc": {
    "errors": {
      "AccessControlBadConfirmation()": [
        {
          "details": "The caller of a function is not the expected one. NOTE: Don't confuse with {AccessControlUnauthorizedAccount}."
        }
      ],
      "AccessControlUnauthorizedAccount(address,bytes32)": [
        {
          "details": "The `account` is missing a role."
        }
      ],
      "InvalidInitialization()": [
        {
          "details": "The contract is already initialized."
        }
      ],
      "NotInitializing()": [
        {
          "details": "The contract is not initializing."
        }
      ]
    },
    "events": {
      "Initialized(uint64)": {
        "details": "Triggered when the contract has been initialized or reinitialized."
      },
      "RoleAdminChanged(bytes32,bytes32,bytes32)": {
        "details": "Emitted when `newAdminRole` is set as ``role``'s admin role, replacing `previousAdminRole` `DEFAULT_ADMIN_ROLE` is the starting admin for all roles, despite {RoleAdminChanged} not being emitted signaling this."
      },
      "RoleGranted(bytes32,address,address)": {
        "details": "Emitted when `account` is granted `role`. `sender` is the account that originated the contract call. This account bears the admin role (for the granted role). Expected in cases where the role was granted using the internal {AccessControl-_grantRole}."
      },
      "RoleRevoked(bytes32,address,address)": {
        "details": "Emitted when `account` is revoked `role`. `sender` is the account that originated the contract call:   - if using `revokeRole`, it is the admin role bearer   - if using `renounceRole`, it is the role bearer (i.e. `account`)"
      }
    },
    "kind": "dev",
    "methods": {
      "buyNFT(uint256)": {
        "details": "Hm mua NFT, bt k ai cng gi c"
      },
      "getRoleAdmin(bytes32)": {
        "details": "Returns the admin role that controls `role`. See {grantRole} and {revokeRole}. To change a role's admin, use {_setRoleAdmin}."
      },
      "grantRole(bytes32,address)": {
        "details": "Grants `role` to `account`. If `account` had not been already granted `role`, emits a {RoleGranted} event. Requirements: - the caller must have ``role``'s admin role. May emit a {RoleGranted} event."
      },
      "hasRole(bytes32,address)": {
        "details": "Returns `true` if `account` has been granted `role`."
      },
      "listNFT(address,uint256,address,uint256)": {
        "details": "Ch ADMIN mi c quyn gi"
      },
      "renounceRole(bytes32,address)": {
        "details": "Revokes `role` from the calling account. Roles are often managed via {grantRole} and {revokeRole}: this function's purpose is to provide a mechanism for accounts to lose their privileges if they are compromised (such as when a trusted device is misplaced). If the calling account had been revoked `role`, emits a {RoleRevoked} event. Requirements: - the caller must be `callerConfirmation`. May emit a {RoleRevoked} event."
      },
      "revokeRole(bytes32,address)": {
        "details": "Revokes `role` from `account`. If `account` had been granted `role`, emits a {RoleRevoked} event. Requirements: - the caller must have ``role``'s admin role. May emit a {RoleRevoked} event."
      },
      "supportsInterface(bytes4)": {
        "details": "See {IERC165-supportsInterface}."
      }
    },
    "version": 1
  },
  "userdoc": {
    "kind": "user",
    "methods": {},
    "version": 1
  },
  "storageLayout": {
    "storage": [
      {
        "astId": 7744,
        "contract": "contracts/NFTShop.sol:ShopNFT",
        "label": "listings",
        "offset": 0,
        "slot": "0",
        "type": "t_mapping(t_uint256,t_struct(Listing)7739_storage)"
      },
      {
        "astId": 7746,
        "contract": "contracts/NFTShop.sol:ShopNFT",
        "label": "listingCounter",
        "offset": 0,
        "slot": "1",
        "type": "t_uint256"
      }
    ],
    "types": {
      "t_address": {
        "encoding": "inplace",
        "label": "address",
        "numberOfBytes": "20"
      },
      "t_bool": {
        "encoding": "inplace",
        "label": "bool",
        "numberOfBytes": "1"
      },
      "t_mapping(t_uint256,t_struct(Listing)7739_storage)": {
        "encoding": "mapping",
        "key": "t_uint256",
        "label": "mapping(uint256 => struct ShopNFT.Listing)",
        "numberOfBytes": "32",
        "value": "t_struct(Listing)7739_storage"
      },
      "t_struct(Listing)7739_storage": {
        "encoding": "inplace",
        "label": "struct ShopNFT.Listing",
        "members": [
          {
            "astId": 7730,
            "contract": "contracts/NFTShop.sol:ShopNFT",
            "label": "nftContract",
            "offset": 0,
            "slot": "0",
            "type": "t_address"
          },
          {
            "astId": 7732,
            "contract": "contracts/NFTShop.sol:ShopNFT",
            "label": "tokenId",
            "offset": 0,
            "slot": "1",
            "type": "t_uint256"
          },
          {
            "astId": 7734,
            "contract": "contracts/NFTShop.sol:ShopNFT",
            "label": "paymentToken",
            "offset": 0,
            "slot": "2",
            "type": "t_address"
          },
          {
            "astId": 7736,
            "contract": "contracts/NFTShop.sol:ShopNFT",
            "label": "price",
            "offset": 0,
            "slot": "3",
            "type": "t_uint256"
          },
          {
            "astId": 7738,
            "contract": "contracts/NFTShop.sol:ShopNFT",
            "label": "active",
            "offset": 0,
            "slot": "4",
            "type": "t_bool"
          }
        ],
        "numberOfBytes": "160"
      },
      "t_uint256": {
        "encoding": "inplace",
        "label": "uint256",
        "numberOfBytes": "32"
      }
    }
  }
}